{
    "address": "0xd1fB2a15545032a8170370d7eC47C0FC69A00eed",
    "abi": [
        {
            "anonymous": false,
            "inputs": [
                {
                    "indexed": false,
                    "internalType": "uint8",
                    "name": "version",
                    "type": "uint8"
                }
            ],
            "name": "Initialized",
            "type": "event"
        },
        {
            "anonymous": false,
            "inputs": [
                {
                    "indexed": true,
                    "internalType": "uint256",
                    "name": "jobId",
                    "type": "uint256"
                },
                {
                    "indexed": false,
                    "internalType": "enum ColabXCartoonCreation.JobStatus",
                    "name": "jobStatus",
                    "type": "uint8"
                }
            ],
            "name": "JobUpdated",
            "type": "event"
        },
        {
            "anonymous": false,
            "inputs": [
                {
                    "indexed": true,
                    "internalType": "address",
                    "name": "newOracleAddress",
                    "type": "address"
                }
            ],
            "name": "OracleAddressUpdated",
            "type": "event"
        },
        {
            "anonymous": false,
            "inputs": [
                {
                    "indexed": true,
                    "internalType": "address",
                    "name": "previousOwner",
                    "type": "address"
                },
                {
                    "indexed": true,
                    "internalType": "address",
                    "name": "newOwner",
                    "type": "address"
                }
            ],
            "name": "OwnershipTransferred",
            "type": "event"
        },
        {
            "inputs": [
                {
                    "internalType": "uint256",
                    "name": "jobId",
                    "type": "uint256"
                }
            ],
            "name": "checkJobId",
            "outputs": [
                {
                    "internalType": "bool",
                    "name": "",
                    "type": "bool"
                }
            ],
            "stateMutability": "view",
            "type": "function"
        },
        {
            "inputs": [
                {
                    "internalType": "string",
                    "name": "a",
                    "type": "string"
                },
                {
                    "internalType": "string",
                    "name": "b",
                    "type": "string"
                }
            ],
            "name": "compareStrings",
            "outputs": [
                {
                    "internalType": "bool",
                    "name": "",
                    "type": "bool"
                }
            ],
            "stateMutability": "pure",
            "type": "function"
        },
        {
            "inputs": [
                {
                    "internalType": "uint256",
                    "name": "jobId",
                    "type": "uint256"
                }
            ],
            "name": "getJobDetails",
            "outputs": [
                {
                    "components": [
                        {
                            "internalType": "uint256",
                            "name": "id",
                            "type": "uint256"
                        },
                        {
                            "internalType": "string",
                            "name": "message",
                            "type": "string"
                        },
                        {
                            "internalType": "string",
                            "name": "response",
                            "type": "string"
                        },
                        {
                            "internalType": "enum ColabXCartoonCreation.JobStatus",
                            "name": "status",
                            "type": "uint8"
                        }
                    ],
                    "internalType": "struct ColabXCartoonCreation.Job",
                    "name": "",
                    "type": "tuple"
                }
            ],
            "stateMutability": "view",
            "type": "function"
        },
        {
            "inputs": [
                {
                    "internalType": "uint256",
                    "name": "jobId",
                    "type": "uint256"
                }
            ],
            "name": "getJobStatus",
            "outputs": [
                {
                    "internalType": "enum ColabXCartoonCreation.JobStatus",
                    "name": "status",
                    "type": "uint8"
                },
                {
                    "internalType": "string",
                    "name": "response",
                    "type": "string"
                }
            ],
            "stateMutability": "view",
            "type": "function"
        },
        {
            "inputs": [
                {
                    "internalType": "string",
                    "name": "message",
                    "type": "string"
                }
            ],
            "name": "initJob",
            "outputs": [
                {
                    "internalType": "uint256",
                    "name": "",
                    "type": "uint256"
                }
            ],
            "stateMutability": "nonpayable",
            "type": "function"
        },
        {
            "inputs": [
                {
                    "internalType": "address",
                    "name": "_oracleAddress",
                    "type": "address"
                }
            ],
            "name": "initialize",
            "outputs": [],
            "stateMutability": "nonpayable",
            "type": "function"
        },
        {
            "inputs": [],
            "name": "jobCount",
            "outputs": [
                {
                    "internalType": "uint256",
                    "name": "",
                    "type": "uint256"
                }
            ],
            "stateMutability": "view",
            "type": "function"
        },
        {
            "inputs": [
                {
                    "internalType": "uint256",
                    "name": "",
                    "type": "uint256"
                }
            ],
            "name": "jobs",
            "outputs": [
                {
                    "internalType": "uint256",
                    "name": "id",
                    "type": "uint256"
                },
                {
                    "internalType": "string",
                    "name": "message",
                    "type": "string"
                },
                {
                    "internalType": "string",
                    "name": "response",
                    "type": "string"
                },
                {
                    "internalType": "enum ColabXCartoonCreation.JobStatus",
                    "name": "status",
                    "type": "uint8"
                }
            ],
            "stateMutability": "view",
            "type": "function"
        },
        {
            "inputs": [
                {
                    "internalType": "uint256",
                    "name": "runId",
                    "type": "uint256"
                },
                {
                    "internalType": "string",
                    "name": "response",
                    "type": "string"
                },
                {
                    "internalType": "string",
                    "name": "errorMessage",
                    "type": "string"
                }
            ],
            "name": "onOracleFunctionResponse",
            "outputs": [],
            "stateMutability": "nonpayable",
            "type": "function"
        },
        {
            "inputs": [],
            "name": "oracleAddress",
            "outputs": [
                {
                    "internalType": "address",
                    "name": "",
                    "type": "address"
                }
            ],
            "stateMutability": "view",
            "type": "function"
        },
        {
            "inputs": [],
            "name": "owner",
            "outputs": [
                {
                    "internalType": "address",
                    "name": "",
                    "type": "address"
                }
            ],
            "stateMutability": "view",
            "type": "function"
        },
        {
            "inputs": [],
            "name": "renounceOwnership",
            "outputs": [],
            "stateMutability": "nonpayable",
            "type": "function"
        },
        {
            "inputs": [
                {
                    "internalType": "address",
                    "name": "newOracleAddress",
                    "type": "address"
                }
            ],
            "name": "setOracleAddress",
            "outputs": [],
            "stateMutability": "nonpayable",
            "type": "function"
        },
        {
            "inputs": [
                {
                    "internalType": "address",
                    "name": "newOwner",
                    "type": "address"
                }
            ],
            "name": "transferOwnership",
            "outputs": [],
            "stateMutability": "nonpayable",
            "type": "function"
        }
    ],
    "transactionHash": "0xbf6f256507d5d6c4e63b14accc9277f4d055ca74f90d088b26d3a6f41b60167e",
    "args": [],
    "numDeployments": 1,
    "solcInputHash": "f0e134fdb8832ec13570b99c58979b70",
    "bytecode": "0x608080604052346100ec57600080546001600160a01b03198082163390811784556001600160a01b039283167f8be0079c531659141344cd1fd0a4f28419497f9722a3daafe3b4186f6b6457e08580a36001547368ec9556830ad097d661df2557fbcec166a0a07580938216146100aa57168117600155604051917f107a9fafffb7ac890f780879e423760c9ffea8dcee8045681f40f542aede2cb89080a261118990816100f28239f35b62461bcd60e51b855260206004860152601660248601527f4f7261636c6520416464726573732069732073616d65000000000000000000006044860152606485fd5b600080fdfe608080604052600436101561001357600080fd5b60003560e01c908163145dfca814610eb557508063180aedf314610e355780634c5d8a0f14610e175780634c69c00f14610da05780634cac35c614610cb957806351cc0ba1146108bb578063715018a6146108625780637397454d146105065780638da5cb5b146104dd578063a6c58b6314610474578063a89ae4ba1461044b578063bed34bba146103a7578063c4d66de8146101895763f2fde38b146100b957600080fd5b34610184576020366003190112610184576004356001600160a01b0381811691829003610184576100e861109e565b811561013057600054826bffffffffffffffffffffffff60a01b821617600055167f8be0079c531659141344cd1fd0a4f28419497f9722a3daafe3b4186f6b6457e0600080a3005b60405162461bcd60e51b815260206004820152602660248201527f4f776e61626c653a206e6577206f776e657220697320746865207a65726f206160448201526564647265737360d01b6064820152608490fd5b600080fd5b34610184576020366003190112610184576004356001600160a01b0381811691829003610184576000549060ff8260a81c161591828093610397575b801561037d575b156103215760ff60a01b198116600160a01b1760005582610309575b506101f161109e565b82156102b857826001549182161461027a576001600160a01b0319168217600155604051917f107a9fafffb7ac890f780879e423760c9ffea8dcee8045681f40f542aede2cb8600080a261024157005b6000805460ff60a81b19169055600181527f7f26b83ff96e1f2b6a682f133852f6798a09c465da95921460cefb384740249890602090a1005b60405162461bcd60e51b81526020600482015260166024820152754f7261636c6520416464726573732069732073616d6560501b6044820152606490fd5b60405162461bcd60e51b8152602060048201526024808201527f496e76616c6964204f7261636c6520416464726573733a207a65726f206164646044820152637265737360e01b6064820152608490fd5b61ffff60a01b191661010160a01b17600055836101e8565b60405162461bcd60e51b815260206004820152602e60248201527f496e697469616c697a61626c653a20636f6e747261637420697320616c72656160448201526d191e481a5b9a5d1a585b1a5e995960921b6064820152608490fd5b50303b1580156101cc5750600160ff8260a01c16146101cc565b50600160ff8260a01c16106101c5565b346101845760403660031901126101845767ffffffffffffffff600435818111610184576103d9903690600401611047565b90602435908111610184576103f2903690600401611047565b6040519160209261041f8482816104128183019687815193849201610ff2565b8101038084520182610f2a565b5190209060405161043f8482816104128183019687815193849201610ff2565b51902014604051908152f35b34610184576000366003190112610184576001546040516001600160a01b039091168152602090f35b346101845760203660031901126101845760043561049560025482106110f6565b60005260036020526104c860406000206104d96104bc600260ff6003850154169301610f4c565b6040519384809461103a565b604060208401526040830190611015565b0390f35b34610184576000366003190112610184576000546040516001600160a01b039091168152602090f35b346101845760603660031901126101845767ffffffffffffffff6004356024358281116101845761053b903690600401611047565b60443583811161018457610553903690600401611047565b60018054919290916001600160a01b031633036108265761057760025485106110f6565b8051151590846000526003926020948486526040600020936000146106fc57508383018160ff19825416179055600283019180519788116106e6576105bc8354610ed4565b601f811161069d575b508590601f891160011461062557978060ff9695949381936000805160206111348339815191529a9b60009461061a575b50501b9160001990861b1c19161790555b015416610617604051809261103a565ba2005b015192508b806105f6565b9790601f1982169884600052876000209960005b818110610688575091600080516020611134833981519152999a918460ff99989796959410610670575b505050811b019055610607565b015160001983881b60f8161c19169055898080610663565b838301518c559a85019a928901928901610639565b8360005286600020601f8a0160051c810191888b106106dc575b601f0160051c019083905b8281106106d05750506105c5565b600081550183906106c2565b90915081906106b7565b634e487b7160e01b600052604160045260246000fd5b9150838301600260ff19825416179055600283019180519788116106e6576107248354610ed4565b601f81116107dd575b508590601f891160011461077e57978060ff9695949381936000805160206111348339815191529a9b600094610773575b50501b9160001990861b1c1916179055610607565b015192508b8061075e565b9790601f1982169884600052876000209960005b8181106107c8575091600080516020611134833981519152999a918460ff9998979695941061067057505050811b019055610607565b838301518c559a85019a928901928901610792565b8360005286600020601f8a0160051c810191888b1061081c575b601f0160051c019083905b82811061081057505061072d565b60008155018390610802565b90915081906107f7565b60405162461bcd60e51b815260206004820152601460248201527343616c6c6572206973206e6f74206f7261636c6560601b6044820152606490fd5b346101845760003660031901126101845761087b61109e565b600080546001600160a01b0319811682556001600160a01b03167f8be0079c531659141344cd1fd0a4f28419497f9722a3daafe3b4186f6b6457e08280a3005b346101845760203660031901126101845760043567ffffffffffffffff8111610184576108ec903690600401611047565b600254906000198214610ca3576001820160025560405161090c81610f0e565b828152602081018281526040516020810181811067ffffffffffffffff8211176106e65760405260008152604083015260006060830152836000526003602052604060002090825182555180519067ffffffffffffffff82116106e65781906109786001850154610ed4565b601f8111610c50575b50602090601f8311600114610be357600092610bd8575b50508160011b916000199060031b1c19161760018201555b604082015180519067ffffffffffffffff82116106e6576109d46002840154610ed4565b601f8111610b91575b50602090601f8311600114610b1f57918060609492600394600092610b14575b50508160011b9160001990851b1c19161760028201555b019101516003811015610afe57600092602092610a949260ff8019835416911617905560018060a01b036001541690604051948580948193634b04236b60e01b835289600484015260606024840152601060648401526f34b6b0b3b2afb3b2b732b930ba34b7b760811b608484015260a0604484015260a4830190611015565b03925af18015610af257610ac7575b602082806000805160206111348339815191528360405160008152a2604051908152f35b602090813d8311610aeb575b610add8183610f2a565b810103126101845781610aa3565b503d610ad3565b6040513d6000823e3d90fd5b634e487b7160e01b600052602160045260246000fd5b0151905088806109fd565b90601f198316916002850160005260206000209260005b818110610b7957509260019285926003966060989610610b61575b505050811b016002820155610a14565b015160001983871b60f8161c19169055888080610b51565b92936020600181928786015181550195019301610b36565b600284016000526020600020601f840160051c810160208510610bd1575b601f830160051c82018110610bc55750506109dd565b60008155600101610baf565b5080610baf565b015190508680610998565b600185016000908152602081209350601f198516905b818110610c385750908460019594939210610c1f575b505050811b0160018201556109b0565b015160001960f88460031b161c19169055868080610c0f565b92936020600181928786015181550195019301610bf9565b909150600184016000526020600020601f840160051c810160208510610c9c575b90849392915b601f830160051c82018110610c8d575050610981565b60008155859450600101610c77565b5080610c71565b634e487b7160e01b600052601160045260246000fd5b34610184576020806003193601126101845760043560006060604051610cde81610f0e565b82815281858201528160408201520152610cfb60025482106110f6565b60005260038152604060002060405190610d1482610f0e565b80548252610d2460018201610f4c565b83830190815260ff6003610d3a60028501610f4c565b93604086019485520154169060608401926003831015610afe57610d81610d94926104d99486526040519788978189525190880152516080604088015260a0870190611015565b9051858203601f19016060870152611015565b9151608084019061103a565b34610184576020366003190112610184576004356001600160a01b038181169182900361018457610dcf61109e565b81156102b857816001549182161461027a576001600160a01b03191681176001557f107a9fafffb7ac890f780879e423760c9ffea8dcee8045681f40f542aede2cb8600080a2005b34610184576000366003190112610184576020600254604051908152f35b3461018457602036600319011261018457600435600052600360205260406000208054610e6460018301610f4c565b916104d9610eaa60ff6003610e7b60028601610f4c565b9401541692610e9c6040519687968752608060208801526080870190611015565b908582036040870152611015565b91606084019061103a565b3461018457602036600319011261018457602090600254600435108152f35b90600182811c92168015610f04575b6020831014610eee57565b634e487b7160e01b600052602260045260246000fd5b91607f1691610ee3565b6080810190811067ffffffffffffffff8211176106e657604052565b90601f8019910116810190811067ffffffffffffffff8211176106e657604052565b9060405191826000825492610f6084610ed4565b908184526001948581169081600014610fcf5750600114610f8c575b5050610f8a92500383610f2a565b565b9093915060005260209081600020936000915b818310610fb7575050610f8a93508201013880610f7c565b85548884018501529485019487945091830191610f9f565b915050610f8a94506020925060ff191682840152151560051b8201013880610f7c565b60005b8381106110055750506000910152565b8181015183820152602001610ff5565b9060209161102e81518092818552858086019101610ff2565b601f01601f1916010190565b906003821015610afe5752565b81601f820112156101845780359067ffffffffffffffff82116106e6576040519261107c601f8401601f191660200185610f2a565b8284526020838301011161018457816000926020809301838601378301015290565b6000546001600160a01b031633036110b257565b606460405162461bcd60e51b815260206004820152602060248201527f4f776e61626c653a2063616c6c6572206973206e6f7420746865206f776e65726044820152fd5b156110fd57565b60405162461bcd60e51b815260206004820152600e60248201526d125b9d985b1a59081a9bd888125160921b6044820152606490fdfeb17f281799264da36ce0121b71ef89948a9e0f0e7ee16a7a0eb2e0efec3565f0a264697066735822122073a4ced0f66f645f014453e78edd824b403883794e95a6dffc38523da77a23b164736f6c63430008140033",
    "devdoc": {
        "events": {
            "Initialized(uint8)": {
                "details": "Triggered when the contract has been initialized or reinitialized."
            }
        },
        "kind": "dev",
        "methods": {
            "owner()": {
                "details": "Returns the address of the current owner."
            },
            "renounceOwnership()": {
                "details": "Leaves the contract without owner. It will not be possible to call `onlyOwner` functions. Can only be called by the current owner. NOTE: Renouncing ownership will leave the contract without an owner, thereby disabling any functionality that is only available to the owner."
            },
            "transferOwnership(address)": {
                "details": "Transfers ownership of the contract to a new account (`newOwner`). Can only be called by the current owner."
            }
        },
        "version": 1
    },
    "userdoc": {
        "kind": "user",
        "methods": {},
        "version": 1
    },
    "storageLayout": {
        "storage": [
            {
                "astId": 506,
                "contract": "contracts/ColabXCartoonCreation.sol:ColabXCartoonCreation",
                "label": "_owner",
                "offset": 0,
                "slot": "0",
                "type": "t_address"
            },
            {
                "astId": 6,
                "contract": "contracts/ColabXCartoonCreation.sol:ColabXCartoonCreation",
                "label": "_initialized",
                "offset": 20,
                "slot": "0",
                "type": "t_uint8"
            },
            {
                "astId": 9,
                "contract": "contracts/ColabXCartoonCreation.sol:ColabXCartoonCreation",
                "label": "_initializing",
                "offset": 21,
                "slot": "0",
                "type": "t_bool"
            },
            {
                "astId": 915,
                "contract": "contracts/ColabXCartoonCreation.sol:ColabXCartoonCreation",
                "label": "oracleAddress",
                "offset": 0,
                "slot": "1",
                "type": "t_address"
            },
            {
                "astId": 658,
                "contract": "contracts/ColabXCartoonCreation.sol:ColabXCartoonCreation",
                "label": "jobCount",
                "offset": 0,
                "slot": "2",
                "type": "t_uint256"
            },
            {
                "astId": 684,
                "contract": "contracts/ColabXCartoonCreation.sol:ColabXCartoonCreation",
                "label": "jobs",
                "offset": 0,
                "slot": "3",
                "type": "t_mapping(t_uint256,t_struct(Job)679_storage)"
            }
        ],
        "types": {
            "t_address": {
                "encoding": "inplace",
                "label": "address",
                "numberOfBytes": "20"
            },
            "t_bool": {
                "encoding": "inplace",
                "label": "bool",
                "numberOfBytes": "1"
            },
            "t_enum(JobStatus)662": {
                "encoding": "inplace",
                "label": "enum ColabXCartoonCreation.JobStatus",
                "numberOfBytes": "1"
            },
            "t_mapping(t_uint256,t_struct(Job)679_storage)": {
                "encoding": "mapping",
                "key": "t_uint256",
                "label": "mapping(uint256 => struct ColabXCartoonCreation.Job)",
                "numberOfBytes": "32",
                "value": "t_struct(Job)679_storage"
            },
            "t_string_storage": {
                "encoding": "bytes",
                "label": "string",
                "numberOfBytes": "32"
            },
            "t_struct(Job)679_storage": {
                "encoding": "inplace",
                "label": "struct ColabXCartoonCreation.Job",
                "members": [
                    {
                        "astId": 671,
                        "contract": "contracts/ColabXCartoonCreation.sol:ColabXCartoonCreation",
                        "label": "id",
                        "offset": 0,
                        "slot": "0",
                        "type": "t_uint256"
                    },
                    {
                        "astId": 673,
                        "contract": "contracts/ColabXCartoonCreation.sol:ColabXCartoonCreation",
                        "label": "message",
                        "offset": 0,
                        "slot": "1",
                        "type": "t_string_storage"
                    },
                    {
                        "astId": 675,
                        "contract": "contracts/ColabXCartoonCreation.sol:ColabXCartoonCreation",
                        "label": "response",
                        "offset": 0,
                        "slot": "2",
                        "type": "t_string_storage"
                    },
                    {
                        "astId": 678,
                        "contract": "contracts/ColabXCartoonCreation.sol:ColabXCartoonCreation",
                        "label": "status",
                        "offset": 0,
                        "slot": "3",
                        "type": "t_enum(JobStatus)662"
                    }
                ],
                "numberOfBytes": "128"
            },
            "t_uint256": {
                "encoding": "inplace",
                "label": "uint256",
                "numberOfBytes": "32"
            },
            "t_uint8": {
                "encoding": "inplace",
                "label": "uint8",
                "numberOfBytes": "1"
            }
        }
    }
}